{
  "address": "0xe7f1725E7734CE288F8367e1Bb143E90bb3F0512",
  "abi": [
    {
      "inputs": [
        {
          "internalType": "address",
          "name": "priceFeedAddress",
          "type": "address"
        }
      ],
      "stateMutability": "nonpayable",
      "type": "constructor"
    },
    {
      "inputs": [],
      "name": "FundMe__Unauthorized",
      "type": "error"
    },
    {
      "stateMutability": "payable",
      "type": "fallback"
    },
    {
      "inputs": [],
      "name": "cheaperWithdraw",
      "outputs": [],
      "stateMutability": "nonpayable",
      "type": "function"
    },
    {
      "inputs": [],
      "name": "fund",
      "outputs": [],
      "stateMutability": "payable",
      "type": "function"
    },
    {
      "inputs": [
        {
          "internalType": "address",
          "name": "fundingAddress",
          "type": "address"
        }
      ],
      "name": "getFundedByAddress",
      "outputs": [
        {
          "internalType": "uint256",
          "name": "",
          "type": "uint256"
        }
      ],
      "stateMutability": "view",
      "type": "function"
    },
    {
      "inputs": [
        {
          "internalType": "uint256",
          "name": "index",
          "type": "uint256"
        }
      ],
      "name": "getFunder",
      "outputs": [
        {
          "internalType": "address",
          "name": "",
          "type": "address"
        }
      ],
      "stateMutability": "view",
      "type": "function"
    },
    {
      "inputs": [],
      "name": "getPriceFeed",
      "outputs": [
        {
          "internalType": "contract AggregatorV3Interface",
          "name": "",
          "type": "address"
        }
      ],
      "stateMutability": "view",
      "type": "function"
    },
    {
      "inputs": [],
      "name": "i_owner",
      "outputs": [
        {
          "internalType": "address",
          "name": "",
          "type": "address"
        }
      ],
      "stateMutability": "view",
      "type": "function"
    },
    {
      "inputs": [],
      "name": "minumumUsd",
      "outputs": [
        {
          "internalType": "uint256",
          "name": "",
          "type": "uint256"
        }
      ],
      "stateMutability": "view",
      "type": "function"
    },
    {
      "inputs": [],
      "name": "withdraw",
      "outputs": [],
      "stateMutability": "nonpayable",
      "type": "function"
    },
    {
      "stateMutability": "payable",
      "type": "receive"
    }
  ],
  "transactionHash": "0xfd7a2c2f221ee84dbf0a0f0f76cc545a0580c404607b363cf46c58d312634f11",
  "args": [
    "0x5FbDB2315678afecb367f032d93F642f64180aa3"
  ],
  "numDeployments": 1,
  "solcInputHash": "9b81b6d088f152d7dcaf96e47c214b20",
  "bytecode": "0x60a06040523480156200001157600080fd5b50604051620013473803806200134783398181016040528101906200003791906200011f565b806000806101000a81548173ffffffffffffffffffffffffffffffffffffffff021916908373ffffffffffffffffffffffffffffffffffffffff1602179055503373ffffffffffffffffffffffffffffffffffffffff1660808173ffffffffffffffffffffffffffffffffffffffff1660601b815250505062000151565b600080fd5b600073ffffffffffffffffffffffffffffffffffffffff82169050919050565b6000620000e782620000ba565b9050919050565b620000f981620000da565b81146200010557600080fd5b50565b6000815190506200011981620000ee565b92915050565b600060208284031215620001385762000137620000b5565b5b6000620001488482850162000108565b91505092915050565b60805160601c6111bb6200018c6000396000818161034e015281816104e2015281816105e4015281816107db01526108f101526111bb6000f3fe60806040526004361061007f5760003560e01c8063b60d42881161004e578063b60d428814610142578063be2693f01461014c578063d7b4750c14610163578063dba6335f146101a05761008e565b806301609fb5146100985780633ccfd60b146100d55780639e87a5cd146100ec578063b43e20b0146101175761008e565b3661008e5761008c6101cb565b005b6100966101cb565b005b3480156100a457600080fd5b506100bf60048036038101906100ba9190610af3565b610303565b6040516100cc9190610b39565b60405180910390f35b3480156100e157600080fd5b506100ea61034c565b005b3480156100f857600080fd5b506101016105ad565b60405161010e9190610bb3565b60405180910390f35b34801561012357600080fd5b5061012c6105d6565b6040516101399190610b39565b60405180910390f35b61014a6101cb565b005b34801561015857600080fd5b506101616105e2565b005b34801561016f57600080fd5b5061018a60048036038101906101859190610bfa565b6108a7565b6040516101979190610c36565b60405180910390f35b3480156101ac57600080fd5b506101b56108ef565b6040516101c29190610c36565b60405180910390f35b678ac7230489e8000061020760008054906101000a900473ffffffffffffffffffffffffffffffffffffffff163461091390919063ffffffff16565b1015610248576040517f08c379a000000000000000000000000000000000000000000000000000000000815260040161023f90610cae565b60405180910390fd5b6001339080600181540180825580915050600190039060005260206000200160009091909190916101000a81548173ffffffffffffffffffffffffffffffffffffffff021916908373ffffffffffffffffffffffffffffffffffffffff16021790555034600260003373ffffffffffffffffffffffffffffffffffffffff1673ffffffffffffffffffffffffffffffffffffffff16815260200190815260200160002060008282546102fa9190610cfd565b92505081905550565b6000600260008373ffffffffffffffffffffffffffffffffffffffff1673ffffffffffffffffffffffffffffffffffffffff168152602001908152602001600020549050919050565b7f000000000000000000000000000000000000000000000000000000000000000073ffffffffffffffffffffffffffffffffffffffff163373ffffffffffffffffffffffffffffffffffffffff16146103d1576040517ff8362c2700000000000000000000000000000000000000000000000000000000815260040160405180910390fd5b60005b60018054905081101561047d576000600182815481106103f7576103f6610d53565b5b9060005260206000200160009054906101000a900473ffffffffffffffffffffffffffffffffffffffff1690506000600260008373ffffffffffffffffffffffffffffffffffffffff1673ffffffffffffffffffffffffffffffffffffffff1681526020019081526020016000208190555050808061047590610d82565b9150506103d4565b50600067ffffffffffffffff81111561049957610498610dcb565b5b6040519080825280602002602001820160405280156104c75781602001602082028036833780820191505090505b50600190805190602001906104dd9291906109e9565b5060007f000000000000000000000000000000000000000000000000000000000000000073ffffffffffffffffffffffffffffffffffffffff164760405161052490610e2b565b60006040518083038185875af1925050503d8060008114610561576040519150601f19603f3d011682016040523d82523d6000602084013e610566565b606091505b50509050806105aa576040517f08c379a00000000000000000000000000000000000000000000000000000000081526004016105a190610e8c565b60405180910390fd5b50565b60008060009054906101000a900473ffffffffffffffffffffffffffffffffffffffff16905090565b678ac7230489e8000081565b7f000000000000000000000000000000000000000000000000000000000000000073ffffffffffffffffffffffffffffffffffffffff163373ffffffffffffffffffffffffffffffffffffffff1614610667576040517ff8362c2700000000000000000000000000000000000000000000000000000000815260040160405180910390fd5b600060018054806020026020016040519081016040528092919081815260200182805480156106eb57602002820191906000526020600020905b8160009054906101000a900473ffffffffffffffffffffffffffffffffffffffff1673ffffffffffffffffffffffffffffffffffffffff16815260200190600101908083116106a1575b5050505050905060005b815181101561077657600082828151811061071357610712610d53565b5b602002602001015190506000600260008373ffffffffffffffffffffffffffffffffffffffff1673ffffffffffffffffffffffffffffffffffffffff1681526020019081526020016000208190555050808061076e90610d82565b9150506106f5565b50600067ffffffffffffffff81111561079257610791610dcb565b5b6040519080825280602002602001820160405280156107c05781602001602082028036833780820191505090505b50600190805190602001906107d69291906109e9565b5060007f000000000000000000000000000000000000000000000000000000000000000073ffffffffffffffffffffffffffffffffffffffff164760405161081d90610e2b565b60006040518083038185875af1925050503d806000811461085a576040519150601f19603f3d011682016040523d82523d6000602084013e61085f565b606091505b50509050806108a3576040517f08c379a000000000000000000000000000000000000000000000000000000000815260040161089a90610e8c565b60405180910390fd5b5050565b6000600182815481106108bd576108bc610d53565b5b9060005260206000200160009054906101000a900473ffffffffffffffffffffffffffffffffffffffff169050919050565b7f000000000000000000000000000000000000000000000000000000000000000081565b60008061091f83610949565b9050670de0b6b3a764000081856109369190610eac565b6109409190610f35565b91505092915050565b6000808273ffffffffffffffffffffffffffffffffffffffff1663feaf968c6040518163ffffffff1660e01b815260040160a06040518083038186803b15801561099257600080fd5b505afa1580156109a6573d6000803e3d6000fd5b505050506040513d601f19601f820116820180604052508101906109ca9190610ff3565b5050509150506402540be400816109e1919061106e565b915050919050565b828054828255906000526020600020908101928215610a62579160200282015b82811115610a615782518260006101000a81548173ffffffffffffffffffffffffffffffffffffffff021916908373ffffffffffffffffffffffffffffffffffffffff16021790555091602001919060010190610a09565b5b509050610a6f9190610a73565b5090565b5b80821115610a8c576000816000905550600101610a74565b5090565b600080fd5b600073ffffffffffffffffffffffffffffffffffffffff82169050919050565b6000610ac082610a95565b9050919050565b610ad081610ab5565b8114610adb57600080fd5b50565b600081359050610aed81610ac7565b92915050565b600060208284031215610b0957610b08610a90565b5b6000610b1784828501610ade565b91505092915050565b6000819050919050565b610b3381610b20565b82525050565b6000602082019050610b4e6000830184610b2a565b92915050565b6000819050919050565b6000610b79610b74610b6f84610a95565b610b54565b610a95565b9050919050565b6000610b8b82610b5e565b9050919050565b6000610b9d82610b80565b9050919050565b610bad81610b92565b82525050565b6000602082019050610bc86000830184610ba4565b92915050565b610bd781610b20565b8114610be257600080fd5b50565b600081359050610bf481610bce565b92915050565b600060208284031215610c1057610c0f610a90565b5b6000610c1e84828501610be5565b91505092915050565b610c3081610ab5565b82525050565b6000602082019050610c4b6000830184610c27565b92915050565b600082825260208201905092915050565b7f646f6e27742073656e6420656e6f756768206d6f6e6579000000000000000000600082015250565b6000610c98601783610c51565b9150610ca382610c62565b602082019050919050565b60006020820190508181036000830152610cc781610c8b565b9050919050565b7f4e487b7100000000000000000000000000000000000000000000000000000000600052601160045260246000fd5b6000610d0882610b20565b9150610d1383610b20565b9250827fffffffffffffffffffffffffffffffffffffffffffffffffffffffffffffffff03821115610d4857610d47610cce565b5b828201905092915050565b7f4e487b7100000000000000000000000000000000000000000000000000000000600052603260045260246000fd5b6000610d8d82610b20565b91507fffffffffffffffffffffffffffffffffffffffffffffffffffffffffffffffff821415610dc057610dbf610cce565b5b600182019050919050565b7f4e487b7100000000000000000000000000000000000000000000000000000000600052604160045260246000fd5b600081905092915050565b50565b6000610e15600083610dfa565b9150610e2082610e05565b600082019050919050565b6000610e3682610e08565b9150819050919050565b7f53656e64206661696c6564000000000000000000000000000000000000000000600082015250565b6000610e76600b83610c51565b9150610e8182610e40565b602082019050919050565b60006020820190508181036000830152610ea581610e69565b9050919050565b6000610eb782610b20565b9150610ec283610b20565b9250817fffffffffffffffffffffffffffffffffffffffffffffffffffffffffffffffff0483118215151615610efb57610efa610cce565b5b828202905092915050565b7f4e487b7100000000000000000000000000000000000000000000000000000000600052601260045260246000fd5b6000610f4082610b20565b9150610f4b83610b20565b925082610f5b57610f5a610f06565b5b828204905092915050565b600069ffffffffffffffffffff82169050919050565b610f8581610f66565b8114610f9057600080fd5b50565b600081519050610fa281610f7c565b92915050565b6000819050919050565b610fbb81610fa8565b8114610fc657600080fd5b50565b600081519050610fd881610fb2565b92915050565b600081519050610fed81610bce565b92915050565b600080600080600060a0868803121561100f5761100e610a90565b5b600061101d88828901610f93565b955050602061102e88828901610fc9565b945050604061103f88828901610fde565b935050606061105088828901610fde565b925050608061106188828901610f93565b9150509295509295909350565b600061107982610fa8565b915061108483610fa8565b9250827f7fffffffffffffffffffffffffffffffffffffffffffffffffffffffffffffff04821160008413600084131616156110c3576110c2610cce565b5b817f80000000000000000000000000000000000000000000000000000000000000000583126000841260008413161615611100576110ff610cce565b5b827f8000000000000000000000000000000000000000000000000000000000000000058212600084136000841216161561113d5761113c610cce565b5b827f7fffffffffffffffffffffffffffffffffffffffffffffffffffffffffffffff058212600084126000841216161561117a57611179610cce565b5b82820290509291505056fea2646970667358221220a353d0d5ec921fdffff534f7152125d03e7d942f7e0b31df5cc3d7a06f9495a064736f6c63430008080033",
  "devdoc": {
    "kind": "dev",
    "methods": {},
    "version": 1
  },
  "userdoc": {
    "kind": "user",
    "methods": {},
    "version": 1
  },
  "storageLayout": {
    "storage": [
      {
        "astId": 61,
        "contract": "contracts/FundMe.sol:FundMe",
        "label": "s_priceFeed",
        "offset": 0,
        "slot": "0",
        "type": "t_contract(AggregatorV3Interface)45"
      },
      {
        "astId": 66,
        "contract": "contracts/FundMe.sol:FundMe",
        "label": "s_funders",
        "offset": 0,
        "slot": "1",
        "type": "t_array(t_address)dyn_storage"
      },
      {
        "astId": 70,
        "contract": "contracts/FundMe.sol:FundMe",
        "label": "s_etherPerAddress",
        "offset": 0,
        "slot": "2",
        "type": "t_mapping(t_address,t_uint256)"
      }
    ],
    "types": {
      "t_address": {
        "encoding": "inplace",
        "label": "address",
        "numberOfBytes": "20"
      },
      "t_array(t_address)dyn_storage": {
        "base": "t_address",
        "encoding": "dynamic_array",
        "label": "address[]",
        "numberOfBytes": "32"
      },
      "t_contract(AggregatorV3Interface)45": {
        "encoding": "inplace",
        "label": "contract AggregatorV3Interface",
        "numberOfBytes": "20"
      },
      "t_mapping(t_address,t_uint256)": {
        "encoding": "mapping",
        "key": "t_address",
        "label": "mapping(address => uint256)",
        "numberOfBytes": "32",
        "value": "t_uint256"
      },
      "t_uint256": {
        "encoding": "inplace",
        "label": "uint256",
        "numberOfBytes": "32"
      }
    }
  }
}